10002022042717:08:56RNOVE
210000000010000132403994       ESCOBEDO                      MARCELA EDITH                 29061986 000000000000000ARG                                                     CARLOS CASARES                     1255      1 5              1755                             BUE                            155505              00                              MARCELA.ESCOBEDO@USAL.EDU.AR                                   0000000000000000000000000000000000000000000000000000000000000000000000000000000000000000000000000000000000000000000000000000000000000000000000000000000000000000000000000000000000000000000000000000000000000000000000000000000000000000000000000000000000000000000000000000000000000000000000000000000000000000000000000000000000000000000000000000000000000000000000000000000000000000000000000000
210000000010000139416757       BAIGORRI                      MARTIN IGNACIO                28121995 000000000000000ARG                                                     AV. VARELA                         585       0                2804                             BUE                            155253              00                              MARTIN.BAIGORRI@USAL.EDU.AR                                    0000000000000000000000000000000000000000000000000000000000000000000000000000000000000000000000000000000000000000000000000000000000000000000000000000000000000000000000000000000000000000000000000000000000000000000000000000000000000000000000000000000000000000000000000000000000000000000000000000000000000000000000000000000000000000000000000000000000000000000000000000000000000000000000000000
210000000010000141709625       KERCHMAN                      MARIA FLORENCIA               23011999 000000000000000ARG                                                     MENDOZA                            5056      6 A              1431                             CAP                            168418              00                              MARIAFLORENCIA.KERCHMAN@USAL.EDU.AR                            0000000000000000000000000000000000000000000000000000000000000000000000000000000000000000000000000000000000000000000000000000000000000000000000000000000000000000000000000000000000000000000000000000000000000000000000000000000000000000000000000000000000000000000000000000000000000000000000000000000000000000000000000000000000000000000000000000000000000000000000000000000000000000000000000000
210000000010000140731290       TABORDA                       MARIA VICTORIA                24101997 000000000000000ARG                                                     URIBURU                            1514      PBB              1114                             CAP                            168567              00                              M.TABORDA@USAL.EDU.AR                                          0000000000000000000000000000000000000000000000000000000000000000000000000000000000000000000000000000000000000000000000000000000000000000000000000000000000000000000000000000000000000000000000000000000000000000000000000000000000000000000000000000000000000000000000000000000000000000000000000000000000000000000000000000000000000000000000000000000000000000000000000000000000000000000000000000
210000000010000141650943       AGUIRRE DE LA CAMARA          JORGE HERNAN                  24101998 000000000000000ARG                                                     SARMIENTO                          1375      0                9000                             CHU                            168620              00                              JORGEHERNAN.AGUIRREDELACAMARA@USAL.EDU.AR                      0000000000000000000000000000000000000000000000000000000000000000000000000000000000000000000000000000000000000000000000000000000000000000000000000000000000000000000000000000000000000000000000000000000000000000000000000000000000000000000000000000000000000000000000000000000000000000000000000000000000000000000000000000000000000000000000000000000000000000000000000000000000000000000000000000
210000000010000140078426       LEGUNDA                       LUCIANO MARCOS                15011997 000000000000000ARG                                                     M. ALVAREZ                         1667      0 1              1684                             BUE                            155635              00                              LUCIANOMARCOS.LEGUNDA@USAL.EDU.AR                              0000000000000000000000000000000000000000000000000000000000000000000000000000000000000000000000000000000000000000000000000000000000000000000000000000000000000000000000000000000000000000000000000000000000000000000000000000000000000000000000000000000000000000000000000000000000000000000000000000000000000000000000000000000000000000000000000000000000000000000000000000000000000000000000000000
210000000010000194932026       INFANTE MARTINEZ              KAREN TATIANA                 27081994 000000000000000ARG                                                     AZCUENAGA                          1077      5 D              1115                             CAP                            155681              00                              TATIANA.INFANTEMARTINEZ@USAL.EDU.AR                            0000000000000000000000000000000000000000000000000000000000000000000000000000000000000000000000000000000000000000000000000000000000000000000000000000000000000000000000000000000000000000000000000000000000000000000000000000000000000000000000000000000000000000000000000000000000000000000000000000000000000000000000000000000000000000000000000000000000000000000000000000000000000000000000000000
210000000010000138715614       SALA                          SANTIAGO                      03101995 000000000000000ARG                                                     AV LUIS MARIA CAMPOS               545       11D              1426                             CAP                            164586              00                              SANTIAGO.SALA@USAL.EDU.AR                                      0000000000000000000000000000000000000000000000000000000000000000000000000000000000000000000000000000000000000000000000000000000000000000000000000000000000000000000000000000000000000000000000000000000000000000000000000000000000000000000000000000000000000000000000000000000000000000000000000000000000000000000000000000000000000000000000000000000000000000000000000000000000000000000000000000
210000000010000140425099       LANDA                         JUANA MARIA                   01061997 000000000000000ARG                                                     AV 91                              1235      0                7630                             BUE                            156789              00                              JUANA.LANDA@USAL.EDU.AR                                        0000000000000000000000000000000000000000000000000000000000000000000000000000000000000000000000000000000000000000000000000000000000000000000000000000000000000000000000000000000000000000000000000000000000000000000000000000000000000000000000000000000000000000000000000000000000000000000000000000000000000000000000000000000000000000000000000000000000000000000000000000000000000000000000000000
210000000010000195409154       GONCALVES CORREIA             MARIA DO SOCORRO              15031973 000000000000000ARG                                                     WILLIAMS                           1516      0                1686                             BUE                            171523              00                              MARIADOSOCORRO.GONCALVESCORREIA@USAL.EDU.AR                    0000000000000000000000000000000000000000000000000000000000000000000000000000000000000000000000000000000000000000000000000000000000000000000000000000000000000000000000000000000000000000000000000000000000000000000000000000000000000000000000000000000000000000000000000000000000000000000000000000000000000000000000000000000000000000000000000000000000000000000000000000000000000000000000000000
210000000010000141916509       ORTEGA                        VALERIA                       27041999 000000000000000ARG                                                     A. MAGARINOS CERVANTES             3535      0                1407                             CAP                            171539              00                              VALERIA.ORTEGA@USAL.EDU.AR                                     0000000000000000000000000000000000000000000000000000000000000000000000000000000000000000000000000000000000000000000000000000000000000000000000000000000000000000000000000000000000000000000000000000000000000000000000000000000000000000000000000000000000000000000000000000000000000000000000000000000000000000000000000000000000000000000000000000000000000000000000000000000000000000000000000000
210000000010000139633619       VASSEL                        PAULA                         10051996 000000000000000ARG                                                     PUJOL                              584       7 F              3450                             COT                            157974              00                              PAULA.VASSEL@USAL.EDU.AR                                       0000000000000000000000000000000000000000000000000000000000000000000000000000000000000000000000000000000000000000000000000000000000000000000000000000000000000000000000000000000000000000000000000000000000000000000000000000000000000000000000000000000000000000000000000000000000000000000000000000000000000000000000000000000000000000000000000000000000000000000000000000000000000000000000000000
210000000010000139577758       RIZZO                         JUAN                          12051996 000000000000000ARG                                                     M. T. DE ALVEAR                    1671      1058             1060                             CAP                            156685              00                              JUAN.RIZZO@USAL.EDU.AR                                         0000000000000000000000000000000000000000000000000000000000000000000000000000000000000000000000000000000000000000000000000000000000000000000000000000000000000000000000000000000000000000000000000000000000000000000000000000000000000000000000000000000000000000000000000000000000000000000000000000000000000000000000000000000000000000000000000000000000000000000000000000000000000000000000000000
210000000010000140399834       ARDISANA WITENAS              SEBASTIAN DANIEL              08061997 000000000000000ARG                                                     LA ROSA                            1184      0                1846                             BUE                            156813              00                              SEBASTIAN.ARDISANAWITENAS@USAL.EDU.AR                          0000000000000000000000000000000000000000000000000000000000000000000000000000000000000000000000000000000000000000000000000000000000000000000000000000000000000000000000000000000000000000000000000000000000000000000000000000000000000000000000000000000000000000000000000000000000000000000000000000000000000000000000000000000000000000000000000000000000000000000000000000000000000000000000000000
210000000010000140382018       BELLO                         AGUSTINA                      14041997 000000000000000ARG                                                     COLON                              451       0                1834                             BUE                            156869              00                              A.BELLO@USAL.EDU.AR                                            0000000000000000000000000000000000000000000000000000000000000000000000000000000000000000000000000000000000000000000000000000000000000000000000000000000000000000000000000000000000000000000000000000000000000000000000000000000000000000000000000000000000000000000000000000000000000000000000000000000000000000000000000000000000000000000000000000000000000000000000000000000000000000000000000000
210000000010000140464217       RAVIZZOLI                     ROSARIO                       07061997 000000000000000ARG                                                     DEL CIELITO                        893       0                1715                             BUE                            156683              00                              ROSARIO.RAVIZZOLI@USAL.EDU.AR                                  0000000000000000000000000000000000000000000000000000000000000000000000000000000000000000000000000000000000000000000000000000000000000000000000000000000000000000000000000000000000000000000000000000000000000000000000000000000000000000000000000000000000000000000000000000000000000000000000000000000000000000000000000000000000000000000000000000000000000000000000000000000000000000000000000000
210000000010000138794029       LARCHER                       ADRIAN EXEQUIEL               20021995 000000000000000ARG                                                     TUCUMAN                            3763      3 D              1425                             CAP                            156856              00                              EXEQUIEL.LARCHER@USAL.EDU.AR                                   0000000000000000000000000000000000000000000000000000000000000000000000000000000000000000000000000000000000000000000000000000000000000000000000000000000000000000000000000000000000000000000000000000000000000000000000000000000000000000000000000000000000000000000000000000000000000000000000000000000000000000000000000000000000000000000000000000000000000000000000000000000000000000000000000000
210000000010000139644575       ROJAS                         CAROLINA MARIA                04051996 000000000000000ARG                                                     AV. CORDOBA                        2852      9 A              1487                             CAP                            156967              00                              ROJAS.CAROLINA@USAL.EDU.AR                                     0000000000000000000000000000000000000000000000000000000000000000000000000000000000000000000000000000000000000000000000000000000000000000000000000000000000000000000000000000000000000000000000000000000000000000000000000000000000000000000000000000000000000000000000000000000000000000000000000000000000000000000000000000000000000000000000000000000000000000000000000000000000000000000000000000
210000000010000138937669       LAGARINI                      LUCIA CAMILA                  12031997 000000000000000ARG                                                     CHACABUCO                          2175      0                1611                             BUE                            155062              00                              LUCIA.LAGARINI@USAL.EDU.AR                                     0000000000000000000000000000000000000000000000000000000000000000000000000000000000000000000000000000000000000000000000000000000000000000000000000000000000000000000000000000000000000000000000000000000000000000000000000000000000000000000000000000000000000000000000000000000000000000000000000000000000000000000000000000000000000000000000000000000000000000000000000000000000000000000000000000
210000000010000139716574       CASENAVE GALLI                ANGELES                       20081996 000000000000000ARG                                                     ESPEJO                             81        0                3200                             ERI                            155149              00                              ANGELES.CASENAVEGALLI@USAL.EDU.AR                              0000000000000000000000000000000000000000000000000000000000000000000000000000000000000000000000000000000000000000000000000000000000000000000000000000000000000000000000000000000000000000000000000000000000000000000000000000000000000000000000000000000000000000000000000000000000000000000000000000000000000000000000000000000000000000000000000000000000000000000000000000000000000000000000000000
210000000010000139831428       D ALESSANDRO MARSIGLIO        DANIELA MARIA                 17081996 000000000000000ARG                                                     AV FLEMING                         122       0                7000                             BUE                            155230              00                              DANIELA.DALESSANDROMARSIGLIO@USAL.EDU.AR                       0000000000000000000000000000000000000000000000000000000000000000000000000000000000000000000000000000000000000000000000000000000000000000000000000000000000000000000000000000000000000000000000000000000000000000000000000000000000000000000000000000000000000000000000000000000000000000000000000000000000000000000000000000000000000000000000000000000000000000000000000000000000000000000000000000
210000000010000138388453       MALTEMPO                      GABRIEL                       07021995 000000000000000ARG                                                     CALLE 4                            788       0                1900                             BUE                            155599              00                              G.MALTEMPO@USAL.EDU.AR                                         0000000000000000000000000000000000000000000000000000000000000000000000000000000000000000000000000000000000000000000000000000000000000000000000000000000000000000000000000000000000000000000000000000000000000000000000000000000000000000000000000000000000000000000000000000000000000000000000000000000000000000000000000000000000000000000000000000000000000000000000000000000000000000000000000000
210000000010000141486726       TORLETTI                      LEANDRO                       28111998 000000000000000ARG                                                     JULIO CORTAZAR                     411       0                4401                             SAL                            171525              00                              LEANDRO.TORLETTI@USAL.EDU.AR                                   0000000000000000000000000000000000000000000000000000000000000000000000000000000000000000000000000000000000000000000000000000000000000000000000000000000000000000000000000000000000000000000000000000000000000000000000000000000000000000000000000000000000000000000000000000000000000000000000000000000000000000000000000000000000000000000000000000000000000000000000000000000000000000000000000000
210000000010000135970778       BRAVO                         JENNIFER MAGALI               26031991 000000000000000ARG                                                     SANTIAGO DEL ESTERO                2398      0                1742                             BUE                            164665              00                              BRAVO.JENNIFER@USAL.EDU.AR                                     0000000000000000000000000000000000000000000000000000000000000000000000000000000000000000000000000000000000000000000000000000000000000000000000000000000000000000000000000000000000000000000000000000000000000000000000000000000000000000000000000000000000000000000000000000000000000000000000000000000000000000000000000000000000000000000000000000000000000000000000000000000000000000000000000000
210000000010000138695644       BRUNO                         FRANCO                        25101994 000000000000000ARG                                                     TUPAC AMARU                        1170      0                1638                             BUE                            164243              00                              FRANCO.BRUNO@USAL.EDU.AR                                       0000000000000000000000000000000000000000000000000000000000000000000000000000000000000000000000000000000000000000000000000000000000000000000000000000000000000000000000000000000000000000000000000000000000000000000000000000000000000000000000000000000000000000000000000000000000000000000000000000000000000000000000000000000000000000000000000000000000000000000000000000000000000000000000000000
210000000010000140462696       KOERNER                       AGOSTINA                      14061997 000000000000000ARG                                                     SOLER                              4433      2 C              1425                             CAP                            164464              00                              AGOSTINA.KOERNER@USAL.EDU.AR                                   0000000000000000000000000000000000000000000000000000000000000000000000000000000000000000000000000000000000000000000000000000000000000000000000000000000000000000000000000000000000000000000000000000000000000000000000000000000000000000000000000000000000000000000000000000000000000000000000000000000000000000000000000000000000000000000000000000000000000000000000000000000000000000000000000000
210000000010000138517416       REY                           MELINA NOEL                   21031996 000000000000000ARG                                                     AV ROCA                            797       0                9000                             CHU                            161510              00                              MELINA.REY@USAL.EDU.AR                                         0000000000000000000000000000000000000000000000000000000000000000000000000000000000000000000000000000000000000000000000000000000000000000000000000000000000000000000000000000000000000000000000000000000000000000000000000000000000000000000000000000000000000000000000000000000000000000000000000000000000000000000000000000000000000000000000000000000000000000000000000000000000000000000000000000
210000000010000139682035       CARLON                        ROCIO                         23091996 000000000000000ARG                                                     SAENZ VALIENTE                     837       2                1640                             BUE                            164162              00                              R.CARLON@USAL.EDU.AR                                           0000000000000000000000000000000000000000000000000000000000000000000000000000000000000000000000000000000000000000000000000000000000000000000000000000000000000000000000000000000000000000000000000000000000000000000000000000000000000000000000000000000000000000000000000000000000000000000000000000000000000000000000000000000000000000000000000000000000000000000000000000000000000000000000000000
210000000010000134028657       BENITEZ                       ANDREA MICAELA                01091988 000000000000000ARG                                                     1310                               1299      0                1888                             BUE                            161553              00                              ANDREA.BENITEZ@USAL.EDU.AR                                     0000000000000000000000000000000000000000000000000000000000000000000000000000000000000000000000000000000000000000000000000000000000000000000000000000000000000000000000000000000000000000000000000000000000000000000000000000000000000000000000000000000000000000000000000000000000000000000000000000000000000000000000000000000000000000000000000000000000000000000000000000000000000000000000000000
210000000010000139435090       CHIABRA                       PATRICIO GUILLERMO            03021996 000000000000000ARG                                                     LOS CONDORES                       8747      0                2814                             BUE                            148435              00                              P.CHIABRA@USAL.EDU.AR                                          0000000000000000000000000000000000000000000000000000000000000000000000000000000000000000000000000000000000000000000000000000000000000000000000000000000000000000000000000000000000000000000000000000000000000000000000000000000000000000000000000000000000000000000000000000000000000000000000000000000000000000000000000000000000000000000000000000000000000000000000000000000000000000000000000000
210000000010000140422833       BAREIRO                       LUCIA ABRIL                   03041997 000000000000000ARG                                                     JOSE HERNANDEZ                     321       0 2              1875                             BUE                            161301              00                              LUCIA.BAREIRO@USAL.EDU.AR                                      0000000000000000000000000000000000000000000000000000000000000000000000000000000000000000000000000000000000000000000000000000000000000000000000000000000000000000000000000000000000000000000000000000000000000000000000000000000000000000000000000000000000000000000000000000000000000000000000000000000000000000000000000000000000000000000000000000000000000000000000000000000000000000000000000000
210000000010000140640487       GIROLAMI GUINLE               AGOSTINA MARIA                22091997 000000000000000ARG                                                     LASCANO                            2864      3 6              1417                             CAP                            161354              00                              AGOSTINA.GIROLAMIGUINLE@USAL.EDU.AR                            0000000000000000000000000000000000000000000000000000000000000000000000000000000000000000000000000000000000000000000000000000000000000000000000000000000000000000000000000000000000000000000000000000000000000000000000000000000000000000000000000000000000000000000000000000000000000000000000000000000000000000000000000000000000000000000000000000000000000000000000000000000000000000000000000000
210000000010000140514026       TEMPRANO                      MARIA DE LOS MILAGROS         23061997 000000000000000ARG                                                     PEDRO LOZANO                       2974      0                1417                             CAP                            161514              00                              MILAGROS.TEMPRANO@USAL.EDU.AR                                  0000000000000000000000000000000000000000000000000000000000000000000000000000000000000000000000000000000000000000000000000000000000000000000000000000000000000000000000000000000000000000000000000000000000000000000000000000000000000000000000000000000000000000000000000000000000000000000000000000000000000000000000000000000000000000000000000000000000000000000000000000000000000000000000000000
210000000010000144284404       LOPEZ DE MURILLAS             MARIA CONSTANZA               05052003 000000000000000ARG                                                     DON BOSCO                          290       0                9000                             CHU                            190370              00                              MARIACONSTANZA.LOPEZDEMURILLAS@USAL.EDU.AR                     0000000000000000000000000000000000000000000000000000000000000000000000000000000000000000000000000000000000000000000000000000000000000000000000000000000000000000000000000000000000000000000000000000000000000000000000000000000000000000000000000000000000000000000000000000000000000000000000000000000000000000000000000000000000000000000000000000000000000000000000000000000000000000000000000000
210000000010000144489382       ALETTI                        VICTORIA                      06122002 000000000000000ARG                                                     RIVADAVIA                          2636      1                7400                             BUE                            190388              00                              VICTORIA.ALETTI@USAL.EDU.AR                                    0000000000000000000000000000000000000000000000000000000000000000000000000000000000000000000000000000000000000000000000000000000000000000000000000000000000000000000000000000000000000000000000000000000000000000000000000000000000000000000000000000000000000000000000000000000000000000000000000000000000000000000000000000000000000000000000000000000000000000000000000000000000000000000000000000
210000000010000143035077       BOURDIEU                      ROCIO MARIA                   03022001 000000000000000ARG                                                     AVENIDA PRESIDENTE FIGUEROA A      3145      4                1425                             CAP                            190472              00                              R.BOURDIEU@USAL.EDU.AR                                         0000000000000000000000000000000000000000000000000000000000000000000000000000000000000000000000000000000000000000000000000000000000000000000000000000000000000000000000000000000000000000000000000000000000000000000000000000000000000000000000000000000000000000000000000000000000000000000000000000000000000000000000000000000000000000000000000000000000000000000000000000000000000000000000000000
210000000010000144284094       MONSALVE                      HANNAH                        12122002 000000000000000ARG                                                     PASAJE LAMADRID 1171 JOSE HER      1171      0 TRE            9100                             CHU                            190563              00                              HANNAH.MONSALVE@USAL.EDU.AR                                    0000000000000000000000000000000000000000000000000000000000000000000000000000000000000000000000000000000000000000000000000000000000000000000000000000000000000000000000000000000000000000000000000000000000000000000000000000000000000000000000000000000000000000000000000000000000000000000000000000000000000000000000000000000000000000000000000000000000000000000000000000000000000000000000000000
210000000010000138880884       PECZAN                        PAULA MICAELA                 25021995 000000000000000ARG                                                     ESMERALDA                          3346      0                1602                             BUE                            155683              00                              PAULA.PECZAN@USAL.EDU.AR                                       0000000000000000000000000000000000000000000000000000000000000000000000000000000000000000000000000000000000000000000000000000000000000000000000000000000000000000000000000000000000000000000000000000000000000000000000000000000000000000000000000000000000000000000000000000000000000000000000000000000000000000000000000000000000000000000000000000000000000000000000000000000000000000000000000000
210000000010000141824921       CONDE                         GIOVANNI VICTORIO             24031999 000000000000000ARG                                                     MORELOS                            552       0                1405                             CAP                            177420              00                              G.CONDE@USAL.EDU.AR                                            0000000000000000000000000000000000000000000000000000000000000000000000000000000000000000000000000000000000000000000000000000000000000000000000000000000000000000000000000000000000000000000000000000000000000000000000000000000000000000000000000000000000000000000000000000000000000000000000000000000000000000000000000000000000000000000000000000000000000000000000000000000000000000000000000000
210000000010000139437104       GONGORA                       CAMILA                        20101999 000000000000000ARG                                                     MAESTRO GERONAZZO                  746       0                9000                             CHU                            176837              00                              C.GONGORA@USAL.EDU.AR                                          0000000000000000000000000000000000000000000000000000000000000000000000000000000000000000000000000000000000000000000000000000000000000000000000000000000000000000000000000000000000000000000000000000000000000000000000000000000000000000000000000000000000000000000000000000000000000000000000000000000000000000000000000000000000000000000000000000000000000000000000000000000000000000000000000000
210000000010000141189440       BERNIGAUD                     CLARA                         21081998 000000000000000ARG                                                     URQUIZA                            894       0                2820                             ERI                            168713              00                              CLARA.BERNIGAUD@USAL.EDU.AR                                    0000000000000000000000000000000000000000000000000000000000000000000000000000000000000000000000000000000000000000000000000000000000000000000000000000000000000000000000000000000000000000000000000000000000000000000000000000000000000000000000000000000000000000000000000000000000000000000000000000000000000000000000000000000000000000000000000000000000000000000000000000000000000000000000000000
210000000010000138015125       MARTINEZ                      MICAELA GISELLE               02021994 000000000000000ARG                                                     PASO                               2851      0                1744                             BUE                            173836              00                              MARTINEZ.M@USAL.EDU.AR                                         0000000000000000000000000000000000000000000000000000000000000000000000000000000000000000000000000000000000000000000000000000000000000000000000000000000000000000000000000000000000000000000000000000000000000000000000000000000000000000000000000000000000000000000000000000000000000000000000000000000000000000000000000000000000000000000000000000000000000000000000000000000000000000000000000000
210000000010000194191094       PIZARRO MENESES               ALEJANDRA VANINA              26082000 000000000000000ARG                                                     AV PUEYRREDON                      1959      12A              1128                             CAP                            177353              00                              A.PIZARROMENESES@USAL.EDU.AR                                   0000000000000000000000000000000000000000000000000000000000000000000000000000000000000000000000000000000000000000000000000000000000000000000000000000000000000000000000000000000000000000000000000000000000000000000000000000000000000000000000000000000000000000000000000000000000000000000000000000000000000000000000000000000000000000000000000000000000000000000000000000000000000000000000000000
210000000010000141472674       ZARAGOZA                      PAULA LUJAN                   25081998 000000000000000ARG                                                     PEDRO MORAN                        3085      0                1419                             CAP                            177408              00                              P.ZARAGOZA@USAL.EDU.AR                                         0000000000000000000000000000000000000000000000000000000000000000000000000000000000000000000000000000000000000000000000000000000000000000000000000000000000000000000000000000000000000000000000000000000000000000000000000000000000000000000000000000000000000000000000000000000000000000000000000000000000000000000000000000000000000000000000000000000000000000000000000000000000000000000000000000
210000000010000138293169       PADIN                         CANDELA                       03061994 000000000000000ARG                                                     VENEZUELA                          3515      PB1              1211                             CAP                            173529              00                              C.PADIN@USAL.EDU.AR                                            0000000000000000000000000000000000000000000000000000000000000000000000000000000000000000000000000000000000000000000000000000000000000000000000000000000000000000000000000000000000000000000000000000000000000000000000000000000000000000000000000000000000000000000000000000000000000000000000000000000000000000000000000000000000000000000000000000000000000000000000000000000000000000000000000000
210000000010000141852364       GIMENEZ                       MELINA AYLEN                  19051999 000000000000000ARG                                                     ECHAURRI                           4379      0                1759                             BUE                            173530              00                              MELINAAYLEN.GIMENEZ@USAL.EDU.AR                                0000000000000000000000000000000000000000000000000000000000000000000000000000000000000000000000000000000000000000000000000000000000000000000000000000000000000000000000000000000000000000000000000000000000000000000000000000000000000000000000000000000000000000000000000000000000000000000000000000000000000000000000000000000000000000000000000000000000000000000000000000000000000000000000000000
210000000010000194088193       LUCENTE                       CHRISTIAN GABRIEL             20081999 000000000000000ARG                                                     FREIRE                             1753      5 18             1426                             CAP                            177172              00                              C.LUCENTE@USAL.EDU.AR                                          0000000000000000000000000000000000000000000000000000000000000000000000000000000000000000000000000000000000000000000000000000000000000000000000000000000000000000000000000000000000000000000000000000000000000000000000000000000000000000000000000000000000000000000000000000000000000000000000000000000000000000000000000000000000000000000000000000000000000000000000000000000000000000000000000000
210000000010000140759866       CESPEDES                      MICAELA                       19111997 000000000000000ARG                                                     492                                3910      0                1897                             BUE                            177185              00                              MICAELA.CESPEDES@USAL.EDU.AR                                   0000000000000000000000000000000000000000000000000000000000000000000000000000000000000000000000000000000000000000000000000000000000000000000000000000000000000000000000000000000000000000000000000000000000000000000000000000000000000000000000000000000000000000000000000000000000000000000000000000000000000000000000000000000000000000000000000000000000000000000000000000000000000000000000000000
210000000010000142215280       GUERRERO MONTERO              VICTORIA                      28101999 000000000000000ARG                                                     GASPAR CAMPOS                      174       0                1638                             BUE                            177193              00                              VICTORIA.GUERREROMONTERO@USAL.EDU.AR                           0000000000000000000000000000000000000000000000000000000000000000000000000000000000000000000000000000000000000000000000000000000000000000000000000000000000000000000000000000000000000000000000000000000000000000000000000000000000000000000000000000000000000000000000000000000000000000000000000000000000000000000000000000000000000000000000000000000000000000000000000000000000000000000000000000
210000000010000142600107       MARTIN                        PILAR                         28052000 000000000000000ARG                                                     DORREGO                            2185      0 0              3190                             ERI                            177219              00                              P.MARTIN@USAL.EDU.AR                                           0000000000000000000000000000000000000000000000000000000000000000000000000000000000000000000000000000000000000000000000000000000000000000000000000000000000000000000000000000000000000000000000000000000000000000000000000000000000000000000000000000000000000000000000000000000000000000000000000000000000000000000000000000000000000000000000000000000000000000000000000000000000000000000000000000
210000000010000138798997       MAYI                          ALDANA MARICEL                29081998 000000000000000ARG                                                     AUSTRIA                            2469      5 B              1425                             BUE                            177223              00                              A.MAYI@USAL.EDU.AR                                             0000000000000000000000000000000000000000000000000000000000000000000000000000000000000000000000000000000000000000000000000000000000000000000000000000000000000000000000000000000000000000000000000000000000000000000000000000000000000000000000000000000000000000000000000000000000000000000000000000000000000000000000000000000000000000000000000000000000000000000000000000000000000000000000000000
210000000010000141469221       REYES                         ROCIO CANDELA                 19071998 000000000000000ARG                                                     RAMON LISTA                        873       0                1706                             BUE                            171779              00                              REYES.R@USAL.EDU.AR                                            0000000000000000000000000000000000000000000000000000000000000000000000000000000000000000000000000000000000000000000000000000000000000000000000000000000000000000000000000000000000000000000000000000000000000000000000000000000000000000000000000000000000000000000000000000000000000000000000000000000000000000000000000000000000000000000000000000000000000000000000000000000000000000000000000000
210000000010000141029111       CONDORI VILLARROEL            ROCIO ALDANA                  08041998 000000000000000ARG                                                     EVITA                              105       0                1111                             BUE                            165301              00                              ROCIO.CONDORIVILLARROEL@USAL.EDU.AR                            0000000000000000000000000000000000000000000000000000000000000000000000000000000000000000000000000000000000000000000000000000000000000000000000000000000000000000000000000000000000000000000000000000000000000000000000000000000000000000000000000000000000000000000000000000000000000000000000000000000000000000000000000000000000000000000000000000000000000000000000000000000000000000000000000000
210000000010000140159104       ANGERAMO                      CAMILA                        04031997 000000000000000ARG                                                     CORDOBA                            1752      12C              1020                             CAP                            168027              00                              ANGERAMO.CAMILA@USAL.EDU.AR                                    0000000000000000000000000000000000000000000000000000000000000000000000000000000000000000000000000000000000000000000000000000000000000000000000000000000000000000000000000000000000000000000000000000000000000000000000000000000000000000000000000000000000000000000000000000000000000000000000000000000000000000000000000000000000000000000000000000000000000000000000000000000000000000000000000000
210000000010000140256166       THEILL                        GASTON                        10031997 000000000000000ARG                                                     BOLIVAR                            741       0                7000                             BUE                            173476              00                              GASTON.THEILL@USAL.EDU.AR                                      0000000000000000000000000000000000000000000000000000000000000000000000000000000000000000000000000000000000000000000000000000000000000000000000000000000000000000000000000000000000000000000000000000000000000000000000000000000000000000000000000000000000000000000000000000000000000000000000000000000000000000000000000000000000000000000000000000000000000000000000000000000000000000000000000000
210000000010000142114087       ARGENTIERI                    AUGUSTO                       10022000 000000000000000ARG                                                     FRANCIA                            59        0                6000                             BUE                            177225              00                              AUGUSTO.ARGENTIERI@USAL.EDU.AR                                 0000000000000000000000000000000000000000000000000000000000000000000000000000000000000000000000000000000000000000000000000000000000000000000000000000000000000000000000000000000000000000000000000000000000000000000000000000000000000000000000000000000000000000000000000000000000000000000000000000000000000000000000000000000000000000000000000000000000000000000000000000000000000000000000000000
210000000010000142200617       DIAZ USANDIVARAS              TRINIDAD MARIA                30091999 000000000000000ARG                                                     PRESIDENTE PERON B LA DELFINA      121       0                1629                             BUE                            177277              00                              T.DIAZUSANDIVARAS@USAL.EDU.AR                                  0000000000000000000000000000000000000000000000000000000000000000000000000000000000000000000000000000000000000000000000000000000000000000000000000000000000000000000000000000000000000000000000000000000000000000000000000000000000000000000000000000000000000000000000000000000000000000000000000000000000000000000000000000000000000000000000000000000000000000000000000000000000000000000000000000
210000000010000142493138       ASENCIO                       CANDELA SOFIA                 10042000 000000000000000ARG                                                     BRANDSEN                           6548      PB               1875                             BUE                            177289              00                              C.ASENCIO@USAL.EDU.AR                                          0000000000000000000000000000000000000000000000000000000000000000000000000000000000000000000000000000000000000000000000000000000000000000000000000000000000000000000000000000000000000000000000000000000000000000000000000000000000000000000000000000000000000000000000000000000000000000000000000000000000000000000000000000000000000000000000000000000000000000000000000000000000000000000000000000
210000000010000142214779       KONECNY                       EZEQUIEL HERNAN               14101999 000000000000000ARG                                                     FELIPE VALLESE                     1858      0                1406                             CAP                            177293              00                              E.KONECNY@USAL.EDU.AR                                          0000000000000000000000000000000000000000000000000000000000000000000000000000000000000000000000000000000000000000000000000000000000000000000000000000000000000000000000000000000000000000000000000000000000000000000000000000000000000000000000000000000000000000000000000000000000000000000000000000000000000000000000000000000000000000000000000000000000000000000000000000000000000000000000000000
210000000010000140790288       OLLESCH                       DELFINA                       01041998 000000000000000ARG                                                     SAMACOITS                          1946      0                2820                             ERI                            177301              00                              DELFINA.OLLESCH@USAL.EDU.AR                                    0000000000000000000000000000000000000000000000000000000000000000000000000000000000000000000000000000000000000000000000000000000000000000000000000000000000000000000000000000000000000000000000000000000000000000000000000000000000000000000000000000000000000000000000000000000000000000000000000000000000000000000000000000000000000000000000000000000000000000000000000000000000000000000000000000
210000000010000142316674       NAVAMUEL URRESTARAZU          INES MARIA                    25102000 000000000000000ARG                                                     AUSTRIA                            1724      8 A              1425                             BUE                            177628              00                              I.NAVAMUELURRESTARAZU@USAL.EDU.AR                              0000000000000000000000000000000000000000000000000000000000000000000000000000000000000000000000000000000000000000000000000000000000000000000000000000000000000000000000000000000000000000000000000000000000000000000000000000000000000000000000000000000000000000000000000000000000000000000000000000000000000000000000000000000000000000000000000000000000000000000000000000000000000000000000000000
210000000010000141354420       MAIORANO                      JOHANNA ESTEFANIA             04071998 000000000000000ARG                                                     SAN PEDRITO                        1195      0                1406                             CAP                            173551              00                              JOHANNAESTEFANIA.MAIORANO@USAL.EDU.AR                          0000000000000000000000000000000000000000000000000000000000000000000000000000000000000000000000000000000000000000000000000000000000000000000000000000000000000000000000000000000000000000000000000000000000000000000000000000000000000000000000000000000000000000000000000000000000000000000000000000000000000000000000000000000000000000000000000000000000000000000000000000000000000000000000000000
210000000010000138177844       ZAPATA                        MICAELA EDITH                 14051994 000000000000000ARG                                                     CHARRUA                            4375      0                1765                             BUE                            174272              00                              M.ZAPATA@USAL.EDU.AR                                           0000000000000000000000000000000000000000000000000000000000000000000000000000000000000000000000000000000000000000000000000000000000000000000000000000000000000000000000000000000000000000000000000000000000000000000000000000000000000000000000000000000000000000000000000000000000000000000000000000000000000000000000000000000000000000000000000000000000000000000000000000000000000000000000000000
210000000010000140990136       DE ZAN                        FELIPE                        17061998 000000000000000ARG                                                     FRENCH                             2394      9 A              1128                             CAP                            177694              00                              DEZAN.F@USAL.EDU.AR                                            0000000000000000000000000000000000000000000000000000000000000000000000000000000000000000000000000000000000000000000000000000000000000000000000000000000000000000000000000000000000000000000000000000000000000000000000000000000000000000000000000000000000000000000000000000000000000000000000000000000000000000000000000000000000000000000000000000000000000000000000000000000000000000000000000000
210000000010000141640884       AJIS                          SOL                           11011999 000000000000000ARG                                                     LA RIOJA                           57        0                9400                             SCR                            172944              00                              SOL.AJIS@USAL.EDU.AR                                           0000000000000000000000000000000000000000000000000000000000000000000000000000000000000000000000000000000000000000000000000000000000000000000000000000000000000000000000000000000000000000000000000000000000000000000000000000000000000000000000000000000000000000000000000000000000000000000000000000000000000000000000000000000000000000000000000000000000000000000000000000000000000000000000000000
210000000010000142257996       VAN CAUWLAERT                 MARIA VICTORIA                14121999 000000000000000ARG                                                     CIRCUNVALACION OESTE               43        0                4400                             SAL                            177549              00                              M.VANCAUWLAERT@USAL.EDU.AR                                     0000000000000000000000000000000000000000000000000000000000000000000000000000000000000000000000000000000000000000000000000000000000000000000000000000000000000000000000000000000000000000000000000000000000000000000000000000000000000000000000000000000000000000000000000000000000000000000000000000000000000000000000000000000000000000000000000000000000000000000000000000000000000000000000000000
210000000010000141588081       GONZALEZ                      MARTIN FRANCO                 10021999 000000000000000ARG                                                     MEXICO                             2025      0 3              1222                             CAP                            177571              00                              M.GONZALEZ2@USAL.EDU.AR                                        0000000000000000000000000000000000000000000000000000000000000000000000000000000000000000000000000000000000000000000000000000000000000000000000000000000000000000000000000000000000000000000000000000000000000000000000000000000000000000000000000000000000000000000000000000000000000000000000000000000000000000000000000000000000000000000000000000000000000000000000000000000000000000000000000000
210000000010000141953728       GOLD                          JANA                          05111999 000000000000000ARG                                                     FRANCISCO SUERO                    429       0                6720                             BUE                            177619              00                              JANA.GOLD@USAL.EDU.AR                                          0000000000000000000000000000000000000000000000000000000000000000000000000000000000000000000000000000000000000000000000000000000000000000000000000000000000000000000000000000000000000000000000000000000000000000000000000000000000000000000000000000000000000000000000000000000000000000000000000000000000000000000000000000000000000000000000000000000000000000000000000000000000000000000000000000
210000000010000141434831       VAGLIO                        BRUNO                         02011999 000000000000000ARG                                                     MANSILLA                           3493      5 A              1425                             CAP                            177699              00                              BRUNO.VAGLIO@USAL.EDU.AR                                       0000000000000000000000000000000000000000000000000000000000000000000000000000000000000000000000000000000000000000000000000000000000000000000000000000000000000000000000000000000000000000000000000000000000000000000000000000000000000000000000000000000000000000000000000000000000000000000000000000000000000000000000000000000000000000000000000000000000000000000000000000000000000000000000000000
210000000010000136908691       SALAS                         YESSICA AYLEN                 15121992 000000000000000ARG                                                     CASEROS                            736       2                1706                             BUE                            173214              00                              Y.SALAS@USAL.EDU.AR                                            0000000000000000000000000000000000000000000000000000000000000000000000000000000000000000000000000000000000000000000000000000000000000000000000000000000000000000000000000000000000000000000000000000000000000000000000000000000000000000000000000000000000000000000000000000000000000000000000000000000000000000000000000000000000000000000000000000000000000000000000000000000000000000000000000000
210000000010000142355652       PEREZ                         MARIA JULIETA                 07022000 000000000000000ARG                                                     GERVACIO MENDEZ                    1030      0                2820                             ERI                            177708              00                              MARIAJULIETA.PEREZ@USAL.EDU.AR                                 0000000000000000000000000000000000000000000000000000000000000000000000000000000000000000000000000000000000000000000000000000000000000000000000000000000000000000000000000000000000000000000000000000000000000000000000000000000000000000000000000000000000000000000000000000000000000000000000000000000000000000000000000000000000000000000000000000000000000000000000000000000000000000000000000000
210000000010000195516365       MELENDREZ RAMIREZ             CRISTINA YISELA               06081992 000000000000000ARG                                                     RIO DE LA PLATA                    5046      0                1111                             BUE                            177719              00                              MELENDREZRAMIREZ.C@USAL.EDU.AR                                 0000000000000000000000000000000000000000000000000000000000000000000000000000000000000000000000000000000000000000000000000000000000000000000000000000000000000000000000000000000000000000000000000000000000000000000000000000000000000000000000000000000000000000000000000000000000000000000000000000000000000000000000000000000000000000000000000000000000000000000000000000000000000000000000000000
210000000010000142479820       PAZ                           BRUNO SANTIAGO                01062000 000000000000000ARG                                                     BARRIO ROCA ACC                    161       PBA              9120                             CHU                            177736              00                              BRUNOSANTIAGO.PAZ@USAL.EDU.AR                                  0000000000000000000000000000000000000000000000000000000000000000000000000000000000000000000000000000000000000000000000000000000000000000000000000000000000000000000000000000000000000000000000000000000000000000000000000000000000000000000000000000000000000000000000000000000000000000000000000000000000000000000000000000000000000000000000000000000000000000000000000000000000000000000000000000
210000000010000142201375       PEREIRA REDONDO               MARIA CANDELA                 01101999 000000000000000ARG                                                     GELLY                              3368      11B              1425                             CAP                            177739              00                              M.PEREIRAREDONDO@USAL.EDU.AR                                   0000000000000000000000000000000000000000000000000000000000000000000000000000000000000000000000000000000000000000000000000000000000000000000000000000000000000000000000000000000000000000000000000000000000000000000000000000000000000000000000000000000000000000000000000000000000000000000000000000000000000000000000000000000000000000000000000000000000000000000000000000000000000000000000000000
210000000010000142114047       OLANO                         SOFIA                         15012000 000000000000000ARG                                                     LARTIGAU                           111       0                6000                             BUE                            177783              00                              SOFIA.OLANO@USAL.EDU.AR                                        0000000000000000000000000000000000000000000000000000000000000000000000000000000000000000000000000000000000000000000000000000000000000000000000000000000000000000000000000000000000000000000000000000000000000000000000000000000000000000000000000000000000000000000000000000000000000000000000000000000000000000000000000000000000000000000000000000000000000000000000000000000000000000000000000000
210000000010000142397392       LARRAQUY                      BERNARDITA                    04101999 000000000000000ARG                                                     SARMIENTO                          2573      0                1727                             BUE                            177784              00                              B.LARRAQUY@USAL.EDU.AR                                         0000000000000000000000000000000000000000000000000000000000000000000000000000000000000000000000000000000000000000000000000000000000000000000000000000000000000000000000000000000000000000000000000000000000000000000000000000000000000000000000000000000000000000000000000000000000000000000000000000000000000000000000000000000000000000000000000000000000000000000000000000000000000000000000000000
210000000010000137665577       ALMIRON                       ALDANA MICAELA                08101994 000000000000000ARG                                                     AV. ANTARTIDA ARGENTINA            653       0                9001                             CHU                            138989              00                              A.ALMIRON@USAL.EDU.AR                                          0000000000000000000000000000000000000000000000000000000000000000000000000000000000000000000000000000000000000000000000000000000000000000000000000000000000000000000000000000000000000000000000000000000000000000000000000000000000000000000000000000000000000000000000000000000000000000000000000000000000000000000000000000000000000000000000000000000000000000000000000000000000000000000000000000
210000000010000138148878       D ELIA                        CAROLINA                      03031994 000000000000000ARG                                                     LINIERS                            582       0                1864                             BUE                            173810              00                              CAROLINA.DELIA@USAL.EDU.AR                                     0000000000000000000000000000000000000000000000000000000000000000000000000000000000000000000000000000000000000000000000000000000000000000000000000000000000000000000000000000000000000000000000000000000000000000000000000000000000000000000000000000000000000000000000000000000000000000000000000000000000000000000000000000000000000000000000000000000000000000000000000000000000000000000000000000
210000000010000142224775       VALENZUELA STEINBACH          GONZALO ARIEL                 29111999 000000000000000ARG                                                     GRAL ROCA                          3230      0                1653                             BUE                            177835              00                              G.VALENZUELASTEINBACH@USAL.EDU.AR                              0000000000000000000000000000000000000000000000000000000000000000000000000000000000000000000000000000000000000000000000000000000000000000000000000000000000000000000000000000000000000000000000000000000000000000000000000000000000000000000000000000000000000000000000000000000000000000000000000000000000000000000000000000000000000000000000000000000000000000000000000000000000000000000000000000
210000000010000123374823       PERELLI                       MARIA JOSE                    21051973 000000000000000ARG                                                     BRANDEN                            2736      0                1702                             BUE                            177841              00                              M.PERELLI@USAL.EDU.AR                                          0000000000000000000000000000000000000000000000000000000000000000000000000000000000000000000000000000000000000000000000000000000000000000000000000000000000000000000000000000000000000000000000000000000000000000000000000000000000000000000000000000000000000000000000000000000000000000000000000000000000000000000000000000000000000000000000000000000000000000000000000000000000000000000000000000
210000000010000142600704       SCHAB                         MICAELA                       07052000 000000000000000ARG                                                     HERNANDEZ                          780       0                3260                             ERI                            177894              00                              SCHAB.MICAELA@USAL.EDU.AR                                      0000000000000000000000000000000000000000000000000000000000000000000000000000000000000000000000000000000000000000000000000000000000000000000000000000000000000000000000000000000000000000000000000000000000000000000000000000000000000000000000000000000000000000000000000000000000000000000000000000000000000000000000000000000000000000000000000000000000000000000000000000000000000000000000000000
210000000010000139557843       D AMEN                        AGUSTIN NICOLAS               15031996 000000000000000ARG                                                     GARCIA DEL RIO                     4332      0                1430                             CAP                            177907              00                              A.DAMEN@USAL.EDU.AR                                            0000000000000000000000000000000000000000000000000000000000000000000000000000000000000000000000000000000000000000000000000000000000000000000000000000000000000000000000000000000000000000000000000000000000000000000000000000000000000000000000000000000000000000000000000000000000000000000000000000000000000000000000000000000000000000000000000000000000000000000000000000000000000000000000000000
210000000010000127111868       GABINO                        PABLO FABIAN                  16121978 000000000000000ARG                                                     19                                 129 MEDIO 0 1              1900                             BUE                            173841              00                              P.GABINO@USAL.EDU.AR                                           0000000000000000000000000000000000000000000000000000000000000000000000000000000000000000000000000000000000000000000000000000000000000000000000000000000000000000000000000000000000000000000000000000000000000000000000000000000000000000000000000000000000000000000000000000000000000000000000000000000000000000000000000000000000000000000000000000000000000000000000000000000000000000000000000000
210000000010000139963775       BERSANINI                     AGOSTINA                      11101996 000000000000000ARG                                                     CONSTITUTCION                      1861      0                1663                             BUE                            173921              00                              AGOSTINA.BERSANINI@USAL.EDU.AR                                 0000000000000000000000000000000000000000000000000000000000000000000000000000000000000000000000000000000000000000000000000000000000000000000000000000000000000000000000000000000000000000000000000000000000000000000000000000000000000000000000000000000000000000000000000000000000000000000000000000000000000000000000000000000000000000000000000000000000000000000000000000000000000000000000000000
210000000010000136425831       CORNA                         FRANCISCO                     17121991 000000000000000ARG                                                     PARANA                             124       0                5800                             COB                            165333              00                              FRANCISCO.CORNA@USAL.EDU.AR                                    0000000000000000000000000000000000000000000000000000000000000000000000000000000000000000000000000000000000000000000000000000000000000000000000000000000000000000000000000000000000000000000000000000000000000000000000000000000000000000000000000000000000000000000000000000000000000000000000000000000000000000000000000000000000000000000000000000000000000000000000000000000000000000000000000000
210000000010000142370406       ESENARRO                      LUCIANO                       27121999 000000000000000ARG                                                     AV BALBIN                          878       1 1              1663                             BUE                            177758              00                              LUCIANO.ESENARRO@USAL.EDU.AR                                   0000000000000000000000000000000000000000000000000000000000000000000000000000000000000000000000000000000000000000000000000000000000000000000000000000000000000000000000000000000000000000000000000000000000000000000000000000000000000000000000000000000000000000000000000000000000000000000000000000000000000000000000000000000000000000000000000000000000000000000000000000000000000000000000000000
210000000010000135266414       MOLINA                        MAYRA INES                    02071990 000000000000000ARG                                                     ESTOMBA                            1016      0                1634                             BUE                            177845              00                              MOLINA.M@USAL.EDU.AR                                           0000000000000000000000000000000000000000000000000000000000000000000000000000000000000000000000000000000000000000000000000000000000000000000000000000000000000000000000000000000000000000000000000000000000000000000000000000000000000000000000000000000000000000000000000000000000000000000000000000000000000000000000000000000000000000000000000000000000000000000000000000000000000000000000000000
210000000010000142123156       CODURI                        VALENTINA                     08101999 000000000000000ARG                                                     MATEO ARAUJO                       630       0                3200                             ERI                            177971              00                              V.CODURI@USAL.EDU.AR                                           0000000000000000000000000000000000000000000000000000000000000000000000000000000000000000000000000000000000000000000000000000000000000000000000000000000000000000000000000000000000000000000000000000000000000000000000000000000000000000000000000000000000000000000000000000000000000000000000000000000000000000000000000000000000000000000000000000000000000000000000000000000000000000000000000000
210000000010000127117857       AMURRIO                       MIRIAM ISABEL                 11011979 000000000000000ARG                                                     LARTIGAU                           5582      0                1754                             BUE                            164834              00                              ISABEL.AMURRIO@USAL.EDU.AR                                     0000000000000000000000000000000000000000000000000000000000000000000000000000000000000000000000000000000000000000000000000000000000000000000000000000000000000000000000000000000000000000000000000000000000000000000000000000000000000000000000000000000000000000000000000000000000000000000000000000000000000000000000000000000000000000000000000000000000000000000000000000000000000000000000000000
210000000010000138925978       FERNANDEZ                     INA                           31081995 000000000000000ARG                                                     LARREA                             933       1 E              2342                             CAP                            173313              00                              INA.FERNANDEZ@USAL.EDU.AR                                      0000000000000000000000000000000000000000000000000000000000000000000000000000000000000000000000000000000000000000000000000000000000000000000000000000000000000000000000000000000000000000000000000000000000000000000000000000000000000000000000000000000000000000000000000000000000000000000000000000000000000000000000000000000000000000000000000000000000000000000000000000000000000000000000000000
210000000010000140826104       CASABELLA                     IGNACIO                       31121997 000000000000000ARG                                                     CLUB DE CAMPO EL PASO N RO         0         0                3016                             SFE                            177821              00                              IGNACIO.CASABELLA@USAL.EDU.AR                                  0000000000000000000000000000000000000000000000000000000000000000000000000000000000000000000000000000000000000000000000000000000000000000000000000000000000000000000000000000000000000000000000000000000000000000000000000000000000000000000000000000000000000000000000000000000000000000000000000000000000000000000000000000000000000000000000000000000000000000000000000000000000000000000000000000
210000000010000140391809       ENRICO                        MAGALI BELEN                  11041997 000000000000000ARG                                                     ALBARELLOS                         2297      0                1765                             BUE                            177945              00                              MAGALIBELEN.ENRICO@USAL.EDU.AR                                 0000000000000000000000000000000000000000000000000000000000000000000000000000000000000000000000000000000000000000000000000000000000000000000000000000000000000000000000000000000000000000000000000000000000000000000000000000000000000000000000000000000000000000000000000000000000000000000000000000000000000000000000000000000000000000000000000000000000000000000000000000000000000000000000000000
210000000010000140135643       CANOSA                        LUCIA                         13041997 000000000000000ARG                                                     DEL VALLE                          233       0                6070                             BUE                            177966              00                              LUCIA.CANOSA@USAL.EDU.AR                                       0000000000000000000000000000000000000000000000000000000000000000000000000000000000000000000000000000000000000000000000000000000000000000000000000000000000000000000000000000000000000000000000000000000000000000000000000000000000000000000000000000000000000000000000000000000000000000000000000000000000000000000000000000000000000000000000000000000000000000000000000000000000000000000000000000
210000000010000140890896       GIORDANO                      LUCIANA ANDREA                19121997 000000000000000ARG                                                     BILLINGHURTS                       2402      1 B              1425                             CAP                            177977              00                              L.GIORDANO@USAL.EDU.AR                                         0000000000000000000000000000000000000000000000000000000000000000000000000000000000000000000000000000000000000000000000000000000000000000000000000000000000000000000000000000000000000000000000000000000000000000000000000000000000000000000000000000000000000000000000000000000000000000000000000000000000000000000000000000000000000000000000000000000000000000000000000000000000000000000000000000
210000000010000141694336       SORIA                         MARIA AGUSTINA                09011999 000000000000000ARG                                                     BOULOGNE SUR MER                   929       2 C              1213                             CAP                            171568              00                              MARIAAGUSTINA.SORIA@USAL.EDU.AR                                0000000000000000000000000000000000000000000000000000000000000000000000000000000000000000000000000000000000000000000000000000000000000000000000000000000000000000000000000000000000000000000000000000000000000000000000000000000000000000000000000000000000000000000000000000000000000000000000000000000000000000000000000000000000000000000000000000000000000000000000000000000000000000000000000000
210000000010000135326458       MENENDEZ                      CINTHYA ANAHI                 04081990 000000000000000ARG                                                     PINTOS                             862       0                1768                             BUE                            174114              00                              C.MENENDEZ@USAL.EDU.AR                                         0000000000000000000000000000000000000000000000000000000000000000000000000000000000000000000000000000000000000000000000000000000000000000000000000000000000000000000000000000000000000000000000000000000000000000000000000000000000000000000000000000000000000000000000000000000000000000000000000000000000000000000000000000000000000000000000000000000000000000000000000000000000000000000000000000
210000000010000138457183       CARRASCOSA                    ROCIO                         02091994 000000000000000ARG                                                     PENA                               2250      2 B              1126                             CAP                            174121              00                              ROCIO.CARRASCOSA@USAL.EDU.AR                                   0000000000000000000000000000000000000000000000000000000000000000000000000000000000000000000000000000000000000000000000000000000000000000000000000000000000000000000000000000000000000000000000000000000000000000000000000000000000000000000000000000000000000000000000000000000000000000000000000000000000000000000000000000000000000000000000000000000000000000000000000000000000000000000000000000
210000000010000141486748       SCHEJ                         MARIA EUGENIA                 06111998 000000000000000ARG                                                     MANUEL SOLA                        60        0                4400                             SAL                            168417              00                              M.SCHEJ@USAL.EDU.AR                                            0000000000000000000000000000000000000000000000000000000000000000000000000000000000000000000000000000000000000000000000000000000000000000000000000000000000000000000000000000000000000000000000000000000000000000000000000000000000000000000000000000000000000000000000000000000000000000000000000000000000000000000000000000000000000000000000000000000000000000000000000000000000000000000000000000
210000000010000140130458       BATTAFARANO                   ARTURO LUIS                   06021997 000000000000000ARG                                                     GASCON                             1111      5 E              1181                             CAP                            168811              00                              A.BATTAFARANO@USAL.EDU.AR                                      0000000000000000000000000000000000000000000000000000000000000000000000000000000000000000000000000000000000000000000000000000000000000000000000000000000000000000000000000000000000000000000000000000000000000000000000000000000000000000000000000000000000000000000000000000000000000000000000000000000000000000000000000000000000000000000000000000000000000000000000000000000000000000000000000000
210000000010000136806620       BIBILONI                      CLARA                         08041992 000000000000000ARG                                                     AV LAS HERAS                       1649      7 31             1018                             CAP                            165362              00                              CLARA.BIBILONI@USAL.EDU.AR                                     0000000000000000000000000000000000000000000000000000000000000000000000000000000000000000000000000000000000000000000000000000000000000000000000000000000000000000000000000000000000000000000000000000000000000000000000000000000000000000000000000000000000000000000000000000000000000000000000000000000000000000000000000000000000000000000000000000000000000000000000000000000000000000000000000000
210000000010000142350160       PARISI VAN DOORN              CAMILA                        23121999 000000000000000ARG                                                     IRIGOYEN                           366       0                8500                             RNE                            177877              00                              CAMILA.PARISI1@USAL.EDU.AR                                     0000000000000000000000000000000000000000000000000000000000000000000000000000000000000000000000000000000000000000000000000000000000000000000000000000000000000000000000000000000000000000000000000000000000000000000000000000000000000000000000000000000000000000000000000000000000000000000000000000000000000000000000000000000000000000000000000000000000000000000000000000000000000000000000000000
210000000010000119062416       LOYATO BERTA                  CAROLINA SABRINA              30071998 000000000000000ARG                                                     J.V GONZALEZ                       1294      0                1706                             BUE                            174749              00                              C.LOYATOBERTA@USAL.EDU.AR                                      0000000000000000000000000000000000000000000000000000000000000000000000000000000000000000000000000000000000000000000000000000000000000000000000000000000000000000000000000000000000000000000000000000000000000000000000000000000000000000000000000000000000000000000000000000000000000000000000000000000000000000000000000000000000000000000000000000000000000000000000000000000000000000000000000000
210000000010000140731622       BULNES                        JULIETA MARIA                 23101997 000000000000000ARG                                                     WARNES                             2638      0                1636                             BUE                            164587              00                              JULIETA.BULNES@USAL.EDU.AR                                     0000000000000000000000000000000000000000000000000000000000000000000000000000000000000000000000000000000000000000000000000000000000000000000000000000000000000000000000000000000000000000000000000000000000000000000000000000000000000000000000000000000000000000000000000000000000000000000000000000000000000000000000000000000000000000000000000000000000000000000000000000000000000000000000000000
210000000010000141180679       ALABI                         FERNANDO SALIM                18071998 000000000000000ARG                                                     EL REFUGIO                         231       0                4400                             SAL                            171763              00                              F.ALABI@USAL.EDU.AR                                            0000000000000000000000000000000000000000000000000000000000000000000000000000000000000000000000000000000000000000000000000000000000000000000000000000000000000000000000000000000000000000000000000000000000000000000000000000000000000000000000000000000000000000000000000000000000000000000000000000000000000000000000000000000000000000000000000000000000000000000000000000000000000000000000000000
210000000010000142649930       RUDOLF IRURZUN                MARIA ELENA                   29052000 000000000000000ARG                                                     CALLAO                             765       6 B              1023                             CAP                            176988              00                              M.RUDOLFIRURZUN@USAL.EDU.AR                                    0000000000000000000000000000000000000000000000000000000000000000000000000000000000000000000000000000000000000000000000000000000000000000000000000000000000000000000000000000000000000000000000000000000000000000000000000000000000000000000000000000000000000000000000000000000000000000000000000000000000000000000000000000000000000000000000000000000000000000000000000000000000000000000000000000
210000000010000141295433       VANNI                         GIANNA ALESSANDRA             03111998 000000000000000ARG                                                     CHARCAS                            2553      8 A              1425                             CAP                            168907              00                              G.VANNI@USAL.EDU.AR                                            0000000000000000000000000000000000000000000000000000000000000000000000000000000000000000000000000000000000000000000000000000000000000000000000000000000000000000000000000000000000000000000000000000000000000000000000000000000000000000000000000000000000000000000000000000000000000000000000000000000000000000000000000000000000000000000000000000000000000000000000000000000000000000000000000000
210000000010000142646797       HADAD                         BELEN                         05062000 000000000000000ARG                                                     GOROSTIAGA                         1585      2                1426                             CAP                            176746              00                              B.HADAD@USAL.EDU.AR                                            0000000000000000000000000000000000000000000000000000000000000000000000000000000000000000000000000000000000000000000000000000000000000000000000000000000000000000000000000000000000000000000000000000000000000000000000000000000000000000000000000000000000000000000000000000000000000000000000000000000000000000000000000000000000000000000000000000000000000000000000000000000000000000000000000000
210000000010000141781333       CARRATALA                     GUADALUPE MARIA               16031999 000000000000000ARG                                                     ECHEVERRIA                         5698      0                1431                             CAP                            171361              00                              CARRATALA.GUADALUPEMARIA@USAL.EDU.AR                           0000000000000000000000000000000000000000000000000000000000000000000000000000000000000000000000000000000000000000000000000000000000000000000000000000000000000000000000000000000000000000000000000000000000000000000000000000000000000000000000000000000000000000000000000000000000000000000000000000000000000000000000000000000000000000000000000000000000000000000000000000000000000000000000000000
210000000010000141908969       AGUERO OVEJERO                TERESA                        29041999 000000000000000ARG                                                     LOS ABETOS                         243       0                4400                             SAL                            171736              00                              TERESA.AGUEROOVEJERO@USAL.EDU.AR                               0000000000000000000000000000000000000000000000000000000000000000000000000000000000000000000000000000000000000000000000000000000000000000000000000000000000000000000000000000000000000000000000000000000000000000000000000000000000000000000000000000000000000000000000000000000000000000000000000000000000000000000000000000000000000000000000000000000000000000000000000000000000000000000000000000
210000000010000140980247       GUTIERREZ                     DELFINA                       12011998 000000000000000ARG                                                     AV CORDOBA                         2914      7 B              1187                             CAP                            171822              00                              DELFINA.GUTIERREZ@USAL.EDU.AR                                  0000000000000000000000000000000000000000000000000000000000000000000000000000000000000000000000000000000000000000000000000000000000000000000000000000000000000000000000000000000000000000000000000000000000000000000000000000000000000000000000000000000000000000000000000000000000000000000000000000000000000000000000000000000000000000000000000000000000000000000000000000000000000000000000000000
210000000010000141891992       LERDA CASACCIA                TIAGO                         20041999 000000000000000ARG                                                     AV. LIBERTADOR                     2605      0                1644                             BUE                            172138              00                              TIAGO.LERDACASACCIA@USAL.EDU.AR                                0000000000000000000000000000000000000000000000000000000000000000000000000000000000000000000000000000000000000000000000000000000000000000000000000000000000000000000000000000000000000000000000000000000000000000000000000000000000000000000000000000000000000000000000000000000000000000000000000000000000000000000000000000000000000000000000000000000000000000000000000000000000000000000000000000
210000000010000141797145       CAILLAVA                      JUAN GABRIEL                  21071999 000000000000000ARG                                                     LORENZA ZENAVILLA                  995       0                1804                             BUE                            177309              00                              JUANGABRIEL.CAILLAVA@USAL.EDU.AR                               0000000000000000000000000000000000000000000000000000000000000000000000000000000000000000000000000000000000000000000000000000000000000000000000000000000000000000000000000000000000000000000000000000000000000000000000000000000000000000000000000000000000000000000000000000000000000000000000000000000000000000000000000000000000000000000000000000000000000000000000000000000000000000000000000000
210000000010000139443872       PATERNOSTRO                   MATEO                         21051996 000000000000000ARG                                                     GURRUCHAGA                         2344      PB2              7040                             CAP                            149732              00                              MATEO.PATERNOSTRO@USAL.EDU.AR                                  0000000000000000000000000000000000000000000000000000000000000000000000000000000000000000000000000000000000000000000000000000000000000000000000000000000000000000000000000000000000000000000000000000000000000000000000000000000000000000000000000000000000000000000000000000000000000000000000000000000000000000000000000000000000000000000000000000000000000000000000000000000000000000000000000000
210000000010000126000924       DEL RIO ELIZALDE              LORENA                        16071977 000000000000000ARG                                                     URIARTE                            2135      3 A              1425                             CAP                            54565               00                              LORENA.DELRIO@USAL.EDU.AR                                      0000000000000000000000000000000000000000000000000000000000000000000000000000000000000000000000000000000000000000000000000000000000000000000000000000000000000000000000000000000000000000000000000000000000000000000000000000000000000000000000000000000000000000000000000000000000000000000000000000000000000000000000000000000000000000000000000000000000000000000000000000000000000000000000000000
210000000010000141737016       QUIROGA                       TOMAS AGUSTIN                 14021999 000000000000000ARG                                                     14 DE JULIO                        143       0                1834                             BUE                            168086              00                              T.QUIROGA@USAL.EDU.AR                                          0000000000000000000000000000000000000000000000000000000000000000000000000000000000000000000000000000000000000000000000000000000000000000000000000000000000000000000000000000000000000000000000000000000000000000000000000000000000000000000000000000000000000000000000000000000000000000000000000000000000000000000000000000000000000000000000000000000000000000000000000000000000000000000000000000
210000000010000137869573       MONTES                        NOELIA IVANA                  09091993 000000000000000ARG                                                     MOZOTTI                            285       0                1832                             BUE                            153603              00                              MONTES.NOELIA@USAL.EDU.AR                                      0000000000000000000000000000000000000000000000000000000000000000000000000000000000000000000000000000000000000000000000000000000000000000000000000000000000000000000000000000000000000000000000000000000000000000000000000000000000000000000000000000000000000000000000000000000000000000000000000000000000000000000000000000000000000000000000000000000000000000000000000000000000000000000000000000
210000000010000131928134       ARNESON                       NATALIA SOLEDAD               18091985 000000000000000ARG                                                     B P LA LOMADA                      317       0                1669                             BUE                            67504               00                              NATALIA.ARNESON@USAL.EDU.AR                                    0000000000000000000000000000000000000000000000000000000000000000000000000000000000000000000000000000000000000000000000000000000000000000000000000000000000000000000000000000000000000000000000000000000000000000000000000000000000000000000000000000000000000000000000000000000000000000000000000000000000000000000000000000000000000000000000000000000000000000000000000000000000000000000000000000
210000000010000129638483       RABAZZANO                     MARIA EUGENIA                 09011983 000000000000000ARG                                                     M.T. DE ALVEAR                     1270      11A              1058                             CAP                            70408               00                              MARIA.RABAZZANO@USAL.EDU.AR                                    0000000000000000000000000000000000000000000000000000000000000000000000000000000000000000000000000000000000000000000000000000000000000000000000000000000000000000000000000000000000000000000000000000000000000000000000000000000000000000000000000000000000000000000000000000000000000000000000000000000000000000000000000000000000000000000000000000000000000000000000000000000000000000000000000000
210000000010000140244924       ALONSO                        CAMILA                        26041997 000000000000000ARG                                                     FRAGATA LA ARGENTIAN               1467      1 1              1440                             CAP                            168967              00                              CAMILA.ALONSO@USAL.EDU.AR                                      0000000000000000000000000000000000000000000000000000000000000000000000000000000000000000000000000000000000000000000000000000000000000000000000000000000000000000000000000000000000000000000000000000000000000000000000000000000000000000000000000000000000000000000000000000000000000000000000000000000000000000000000000000000000000000000000000000000000000000000000000000000000000000000000000000
210000000010000141741587       RODRIGUEZ                     CANDELA BELEN                 25031999 000000000000000ARG                                                     LAPRIDA                            531       0                2804                             BUE                            171369              00                              CANDELABELEN.RODRIGUEZ@USAL.EDU.AR                             0000000000000000000000000000000000000000000000000000000000000000000000000000000000000000000000000000000000000000000000000000000000000000000000000000000000000000000000000000000000000000000000000000000000000000000000000000000000000000000000000000000000000000000000000000000000000000000000000000000000000000000000000000000000000000000000000000000000000000000000000000000000000000000000000000
210000000010000138799125       TOTARO VILLATA                MARIA ALFONSINA               29101998 000000000000000ARG                                                     ALTE. BROWN                        487       0                9001                             CHU                            171445              00                              M.TOTAROVILLATA@USAL.EDU.AR                                    0000000000000000000000000000000000000000000000000000000000000000000000000000000000000000000000000000000000000000000000000000000000000000000000000000000000000000000000000000000000000000000000000000000000000000000000000000000000000000000000000000000000000000000000000000000000000000000000000000000000000000000000000000000000000000000000000000000000000000000000000000000000000000000000000000
210000000010000141800682       ARAOZ CASANOVAS               REGINA                        24031999 000000000000000ARG                                                     PELLEGRINI                         351       0                7100                             BUE                            171593              00                              REGINA.ARAOZCASANOVAS@USAL.EDU.AR                              0000000000000000000000000000000000000000000000000000000000000000000000000000000000000000000000000000000000000000000000000000000000000000000000000000000000000000000000000000000000000000000000000000000000000000000000000000000000000000000000000000000000000000000000000000000000000000000000000000000000000000000000000000000000000000000000000000000000000000000000000000000000000000000000000000
210000000010000141458938       NOVAS                         MARIANA                       30111998 000000000000000ARG                                                     510                                99        0                6620                             CAP                            171623              00                              MARIANA.NOVAS@USAL.EDU.AR                                      0000000000000000000000000000000000000000000000000000000000000000000000000000000000000000000000000000000000000000000000000000000000000000000000000000000000000000000000000000000000000000000000000000000000000000000000000000000000000000000000000000000000000000000000000000000000000000000000000000000000000000000000000000000000000000000000000000000000000000000000000000000000000000000000000000
210000000010000139779610       RIOS NARVAEZ                  SORAYA MICAELA                05071996 000000000000000ARG                                                     MONTEVIDEO                         217       10D              1019                             CAP                            160990              00                              MICAELA.RIOSNARVAEZ@USAL.EDU.AR                                0000000000000000000000000000000000000000000000000000000000000000000000000000000000000000000000000000000000000000000000000000000000000000000000000000000000000000000000000000000000000000000000000000000000000000000000000000000000000000000000000000000000000000000000000000000000000000000000000000000000000000000000000000000000000000000000000000000000000000000000000000000000000000000000000000
